:020000040000FA
:020000002D28A9
:08000800F000030EF10083017A
:100010000408F2000A08F3008A010B118501A50A01
:10002000053025020319A50183132030250784001C
:10003000000887002520850073088A007208840064
:10004000710E8300F00E700E09008A0125088207E8
:100050000134023404341034203483160313713015
:100060008F00831203179E019F01831203138501E2
:100070008601FF30870083160313850186018701FF
:100080008316031381308100A0308B008316031385
:100090009A01193099008312031390309800831647
:1000A00003132430980000307620A9008312031334
:1000B000FF30A000A100A200A300A400A501FF3012
:1000C00087008312031398108C1E61281A08AA0057
:1000D0001B302A0203197228A90B61282A088A15E5
:1000E0000025612800307620A900612883120317BB
:1000F0008D00831603178C130C14831203170C083E
:0601000083120313080046
:101A0000A600803E603E2608031C2030A600803ED3
:101A1000303E0318122D0E308A002B102030260283
:101A2000A800182D0F308A002B1450302602A80071
:101A30002808A807A807A807A807A7012030270794
:101A40008400280827072B1800272B1C002680005D
:0E1A5000A70A05302702031D1E2D8A0108007B
:101C00008207FF34FF34FF34FF34FF34FF34FF34E6
:101C1000B034FF34FF34FF34F834FF34F834FF3489
:101C2000EB348034EB348034EB34DB34D534803423
:101C3000D534ED34DC34EC34F7349B349D34C93482
:101C4000B634AA34DD34AF34FF34FA34FC34FF3414
:101C5000FF34FF34E334DD34BE34FF34FF34BE34AC
:101C6000DD34E334FF34EB34F734C134F734EB3490
:101C7000F734F734C134F734F734FF34AF34CF34AA
:101C8000FF34FF34F734F734F734F734F734FF34E4
:101C90009F349F34FF34FF34DF34EF34F734FB34A8
:101CA000FD34C134BE34BE34BE34C134FF34BD341F
:101CB0008034BF34FF34BD349E34AE34B634B934CE
:101CC000DE34BE34BA34B434CE34E734EB34ED34DD
:101CD0008034EF34D834BA34BA34BA34C634C33466
:101CE000B534B634B634CF34FE348E34F634FA34E8
:101CF000FC34C934B634B634B634C934F934B634E5
:101D0000B634D634E934FF34FF34C934FF34FF34F9
:101D1000FF34A934C934FF34FF34F734EB34DD34F5
:101D2000BE34FF34EB34EB34EB34EB34EB34FF34C0
:101D3000BE34DD34EB34F734FD34FE34AE34F634E7
:101D4000F934CD34B6348634BE34C1348134EE3403
:101D5000EE34EE3481348034B634B634B634C9341B
:101D6000C134BE34BE34BE34DD348034BE34BE34FF
:101D7000DD34E3348034B634B634B634BE34803423
:101D8000F634F634F634FE34C134BE34B634B634E8
:101D900085348034F734F734F7348034FF34BE347C
:101DA0008034BE34FF34DF34BF34BE34C034FE343C
:101DB0008034F734EB34DD34BE348034BF34BF3488
:101DC000BF34BF348034FD34F334FD348034803488
:101DD000FB34F734EF348034C134BE34BE34BE3407
:021DE000C1340C
:041DE2000034003495
:101E000082078034F634F634F634F934C134BE3403
:101E1000AE34DE34A1348034F634E634D634B9340A
:101E2000B934B634B634B634CE34FE34FE348034ED
:101E3000FE34FE34C034BF34BF34BF34C034E03469
:101E4000DF34BF34DF34E034C034BF34C734BF3490
:101E5000C0349C34EB34F734EB349C34F834F7342E
:101E60008F34F734F8349E34AE34B634BA34BC34DC
:101E7000FF348034BE34BE34FF34EA34E934803475
:101E8000E934EA34FF34BE34BE348034FF34FB34EA
:101E9000FD34FE34FD34FB34BF34BF34BF34BF34B3
:101EA000BF34FF34FE34FD34FB34FF34DF34AB3455
:101EB000AB34AB3487348034B734BB34BB34C73431
:101EC000C734BB34BB34BB34DF34C734BB34BB345E
:101ED000B7348034C734AB34AB34AB34E734F73485
:101EE0008134F634FE34FD34F334AD34AD34AD34E6
:101EF000C1348034F734FB34FB348734FF34BB34D3
:101F00008234BF34FF34DF34BF34BB34C234FF34D7
:101F10008034EF34D734BB34FF34FF34BE348034E4
:101F2000BF34FF348334FB34E734FB3487348334E9
:101F3000F734FB34FB348734C734BB34BB34BB3495
:101F4000C7348334EB34EB34EB34F734F734EB340D
:101F5000EB34E73483348334F734FB34FB34FF341D
:101F6000F734AB34AB34AB34DF34FB34C034BB3484
:101F70009F34FF34C334BF34BF34DF348334E3349D
:101F8000DF34BF34DF34E334C334BF34CF34BF3441
:101F9000C334BB34D734EF34D734BB34F334AF3429
:101FA000AF34AF34D334BB349B34AB34B334BB34F1
:101FB000FF34F734C934BE34FF34FF34FF34803487
:101FC000FF34FF34FF34BE34C934F734FF34F73400
:101FD000F734D534E334F734F734E334D534F73415
:021FE000F734D4
:02400E00F43488
:00000001FF
